{
  "chainId": 31337,
  "ownerAddress": "0x547289319C3e6aedB179C0b8e8aF0B5ACd062603",
  "startingNonce": 0,
  "gasPrice": "20000000000",
  "gasPriceGwei": 20,
  "transactions": [
    {
      "name": "IdentityRegistry",
      "proxy": "0x8004A818BFB912233c491871b3d84c89A494BD9e",
      "implementation": "0x7274e874CA62410a93Bd8bf61c69d8045E399c02",
      "nonce": 0,
      "gasLimit": "188927",
      "gasPrice": "20000000000",
      "requiredFunding": "3778540000000000",
      "requiredFundingEth": "0.003779",
      "signedTransaction": "0xf8ec808504a817c8008302e1ff948004a818bfb912233c491871b3d84c89a494bd9e80b8844f1ef2860000000000000000000000007274e874ca62410a93bd8bf61c69d8045e399c02000000000000000000000000000000000000000000000000000000000000004000000000000000000000000000000000000000000000000000000000000000048129fc1c0000000000000000000000000000000000000000000000000000000082f4f5a0cd05b50eea19bd5378cf1d898b471cbbf76bdd6e7f757773c76b714663ce814ca07ac7b2c093e6d4daf0dcdf5183d29b8923f85a26fb8ef7e42bdf210a734e0a20"
    },
    {
      "name": "ReputationRegistry",
      "proxy": "0x8004B663056A597Dffe9eCcC1965A193B7388713",
      "implementation": "0x16e0FA7f7C56B9a767E34B192B51f921BE31dA34",
      "nonce": 1,
      "gasLimit": "63328",
      "gasPrice": "20000000000",
      "requiredFunding": "1266560000000000",
      "requiredFundingEth": "0.001267",
      "signedTransaction": "0xf9010b018504a817c80082f760948004b663056a597dffe9eccc1965a193b738871380b8a44f1ef28600000000000000000000000016e0fa7f7c56b9a767e34b192b51f921be31da3400000000000000000000000000000000000000000000000000000000000000400000000000000000000000000000000000000000000000000000000000000024c4d66de80000000000000000000000008004a818bfb912233c491871b3d84c89a494bd9e0000000000000000000000000000000000000000000000000000000082f4f5a0ab0d7fc835f26a711bbc05867d6dcb3111a42b8f06b43e1c4a5f09b018274979a015c8c5b932618f22ef250dc6bebff04e9a03ddf4d500c7087034bd2b6cae049f"
    },
    {
      "name": "ValidationRegistry",
      "proxy": "0x8004Cb1BF31DAf7788923b405b754f57acEB4272",
      "implementation": "0xDB31f5d9167f8ebc8B30FbBF814c4d297c2D7F99",
      "nonce": 2,
      "gasLimit": "63239",
      "gasPrice": "20000000000",
      "requiredFunding": "1264780000000000",
      "requiredFundingEth": "0.001265",
      "signedTransaction": "0xf9010b028504a817c80082f707948004cb1bf31daf7788923b405b754f57aceb427280b8a44f1ef286000000000000000000000000db31f5d9167f8ebc8b30fbbf814c4d297c2d7f9900000000000000000000000000000000000000000000000000000000000000400000000000000000000000000000000000000000000000000000000000000024c4d66de80000000000000000000000008004a818bfb912233c491871b3d84c89a494bd9e0000000000000000000000000000000000000000000000000000000082f4f6a0bc82a1e596d238107902c3a11b88594349bcdd3ea153d50a5a7cc6e627bb7a35a050c4f0bc2722670f6cd4d71d843796b700e29e92f7bf5f3d142ec99d55bf3418"
    }
  ],
  "totalFunding": "6309880000000000",
  "totalFundingEth": "0.006310",
  "timestamp": "2026-01-23T16:23:28.629Z"
}